{
  "_format": "hh-sol-artifact-1",
  "contractName": "StarToken",
  "sourceName": "contracts/StarToken.sol",
  "abi": [
    {
      "inputs": [
        {
          "internalType": "uint256",
          "name": "_intialSupply",
          "type": "uint256"
        }
      ],
      "stateMutability": "nonpayable",
      "type": "constructor"
    },
    {
      "anonymous": false,
      "inputs": [
        {
          "indexed": true,
          "internalType": "address",
          "name": "_owner",
          "type": "address"
        },
        {
          "indexed": true,
          "internalType": "address",
          "name": "_spender",
          "type": "address"
        },
        {
          "indexed": false,
          "internalType": "uint256",
          "name": "_value",
          "type": "uint256"
        }
      ],
      "name": "Approval",
      "type": "event"
    },
    {
      "anonymous": false,
      "inputs": [
        {
          "indexed": true,
          "internalType": "address",
          "name": "_from",
          "type": "address"
        },
        {
          "indexed": true,
          "internalType": "address",
          "name": "_to",
          "type": "address"
        },
        {
          "indexed": false,
          "internalType": "uint256",
          "name": "_value",
          "type": "uint256"
        }
      ],
      "name": "Transfer",
      "type": "event"
    },
    {
      "inputs": [],
      "name": "_userId",
      "outputs": [
        {
          "internalType": "uint256",
          "name": "",
          "type": "uint256"
        }
      ],
      "stateMutability": "view",
      "type": "function"
    },
    {
      "inputs": [
        {
          "internalType": "address",
          "name": "",
          "type": "address"
        },
        {
          "internalType": "address",
          "name": "",
          "type": "address"
        }
      ],
      "name": "allowance",
      "outputs": [
        {
          "internalType": "uint256",
          "name": "",
          "type": "uint256"
        }
      ],
      "stateMutability": "view",
      "type": "function"
    },
    {
      "inputs": [
        {
          "internalType": "address",
          "name": "",
          "type": "address"
        }
      ],
      "name": "balanceOf",
      "outputs": [
        {
          "internalType": "uint256",
          "name": "",
          "type": "uint256"
        }
      ],
      "stateMutability": "view",
      "type": "function"
    },
    {
      "inputs": [],
      "name": "getTokenHolder",
      "outputs": [
        {
          "internalType": "address[]",
          "name": "",
          "type": "address[]"
        }
      ],
      "stateMutability": "view",
      "type": "function"
    },
    {
      "inputs": [
        {
          "internalType": "address",
          "name": "_address",
          "type": "address"
        }
      ],
      "name": "getTokenHolderData",
      "outputs": [
        {
          "internalType": "uint256",
          "name": "",
          "type": "uint256"
        },
        {
          "internalType": "address",
          "name": "",
          "type": "address"
        },
        {
          "internalType": "address",
          "name": "",
          "type": "address"
        },
        {
          "internalType": "uint256",
          "name": "",
          "type": "uint256"
        },
        {
          "internalType": "bool",
          "name": "",
          "type": "bool"
        }
      ],
      "stateMutability": "view",
      "type": "function"
    },
    {
      "inputs": [],
      "name": "ownerOfContract",
      "outputs": [
        {
          "internalType": "address",
          "name": "",
          "type": "address"
        }
      ],
      "stateMutability": "view",
      "type": "function"
    },
    {
      "inputs": [],
      "name": "standard",
      "outputs": [
        {
          "internalType": "string",
          "name": "",
          "type": "string"
        }
      ],
      "stateMutability": "view",
      "type": "function"
    },
    {
      "inputs": [
        {
          "internalType": "uint256",
          "name": "",
          "type": "uint256"
        }
      ],
      "name": "tokenHolderAddresses",
      "outputs": [
        {
          "internalType": "address",
          "name": "",
          "type": "address"
        }
      ],
      "stateMutability": "view",
      "type": "function"
    },
    {
      "inputs": [
        {
          "internalType": "address",
          "name": "",
          "type": "address"
        }
      ],
      "name": "tokenHolderInfos",
      "outputs": [
        {
          "internalType": "uint256",
          "name": "_tokenId",
          "type": "uint256"
        },
        {
          "internalType": "address",
          "name": "_from",
          "type": "address"
        },
        {
          "internalType": "address",
          "name": "_to",
          "type": "address"
        },
        {
          "internalType": "uint256",
          "name": "_totalToken",
          "type": "uint256"
        },
        {
          "internalType": "bool",
          "name": "_tokenHolder",
          "type": "bool"
        }
      ],
      "stateMutability": "view",
      "type": "function"
    },
    {
      "inputs": [],
      "name": "tokenName",
      "outputs": [
        {
          "internalType": "string",
          "name": "",
          "type": "string"
        }
      ],
      "stateMutability": "view",
      "type": "function"
    },
    {
      "inputs": [],
      "name": "tokenSymbol",
      "outputs": [
        {
          "internalType": "string",
          "name": "",
          "type": "string"
        }
      ],
      "stateMutability": "view",
      "type": "function"
    },
    {
      "inputs": [],
      "name": "totalSupply",
      "outputs": [
        {
          "internalType": "uint256",
          "name": "",
          "type": "uint256"
        }
      ],
      "stateMutability": "view",
      "type": "function"
    },
    {
      "inputs": [
        {
          "internalType": "address",
          "name": "_to",
          "type": "address"
        },
        {
          "internalType": "uint256",
          "name": "_value",
          "type": "uint256"
        }
      ],
      "name": "transfer",
      "outputs": [
        {
          "internalType": "bool",
          "name": "success",
          "type": "bool"
        }
      ],
      "stateMutability": "nonpayable",
      "type": "function"
    },
    {
      "inputs": [
        {
          "internalType": "address",
          "name": "_from",
          "type": "address"
        },
        {
          "internalType": "address",
          "name": "_to",
          "type": "address"
        },
        {
          "internalType": "uint256",
          "name": "_value",
          "type": "uint256"
        }
      ],
      "name": "transferFrom",
      "outputs": [
        {
          "internalType": "bool",
          "name": "success",
          "type": "bool"
        }
      ],
      "stateMutability": "nonpayable",
      "type": "function"
    }
  ],
  "bytecode": "0x60806040526040518060400160405280600981526020017f53746172546f6b656e0000000000000000000000000000000000000000000000815250600090816200004a919062000419565b506040518060400160405280600381526020017f53544f00000000000000000000000000000000000000000000000000000000008152506001908162000091919062000419565b506040518060400160405280601081526020017f5374617274546f6b656e20762e302e310000000000000000000000000000000081525060029081620000d8919062000419565b50348015620000e657600080fd5b506040516200196c3803806200196c83398181016040528101906200010c919062000536565b33600460006101000a81548173ffffffffffffffffffffffffffffffffffffffff021916908373ffffffffffffffffffffffffffffffffffffffff16021790555080600860003373ffffffffffffffffffffffffffffffffffffffff1673ffffffffffffffffffffffffffffffffffffffff16815260200190815260200160002081905550806003819055505062000568565b600081519050919050565b7f4e487b7100000000000000000000000000000000000000000000000000000000600052604160045260246000fd5b7f4e487b7100000000000000000000000000000000000000000000000000000000600052602260045260246000fd5b600060028204905060018216806200022157607f821691505b602082108103620002375762000236620001d9565b5b50919050565b60008190508160005260206000209050919050565b60006020601f8301049050919050565b600082821b905092915050565b600060088302620002a17fffffffffffffffffffffffffffffffffffffffffffffffffffffffffffffffff8262000262565b620002ad868362000262565b95508019841693508086168417925050509392505050565b6000819050919050565b6000819050919050565b6000620002fa620002f4620002ee84620002c5565b620002cf565b620002c5565b9050919050565b6000819050919050565b6200031683620002d9565b6200032e620003258262000301565b8484546200026f565b825550505050565b600090565b6200034562000336565b620003528184846200030b565b505050565b5b818110156200037a576200036e6000826200033b565b60018101905062000358565b5050565b601f821115620003c95762000393816200023d565b6200039e8462000252565b81016020851015620003ae578190505b620003c6620003bd8562000252565b83018262000357565b50505b505050565b600082821c905092915050565b6000620003ee60001984600802620003ce565b1980831691505092915050565b6000620004098383620003db565b9150826002028217905092915050565b62000424826200019f565b67ffffffffffffffff81111562000440576200043f620001aa565b5b6200044c825462000208565b620004598282856200037e565b600060209050601f8311600181146200049157600084156200047c578287015190505b620004888582620003fb565b865550620004f8565b601f198416620004a1866200023d565b60005b82811015620004cb57848901518255600182019150602085019450602081019050620004a4565b86831015620004eb5784890151620004e7601f891682620003db565b8355505b6001600288020188555050505b505050505050565b600080fd5b6200051081620002c5565b81146200051c57600080fd5b50565b600081519050620005308162000505565b92915050565b6000602082840312156200054f576200054e62000500565b5b60006200055f848285016200051f565b91505092915050565b6113f480620005786000396000f3fe608060405234801561001057600080fd5b50600436106100ea5760003560e01c80637b61c3201161008c578063b44f7b9f11610066578063b44f7b9f1461027d578063ba8e3557146102ad578063bc4530e7146102cb578063dd62ed3e146102e9576100ea565b80637b61c320146101fb57806382b6826314610219578063a9059cbb1461024d576100ea565b8063468229ae116100c8578063468229ae146101715780635a3b7e421461018f5780636c02a931146101ad57806370a08231146101cb576100ea565b806318160ddd146100ef57806323b872dd1461010d57806329cc66ed1461013d575b600080fd5b6100f7610319565b6040516101049190610df7565b60405180910390f35b61012760048036038101906101229190610ea1565b61031f565b6040516101349190610f0f565b60405180910390f35b61015760048036038101906101529190610f2a565b6105a5565b604051610168959493929190610f66565b60405180910390f35b610179610628565b6040516101869190610fb9565b60405180910390f35b61019761064e565b6040516101a49190611064565b60405180910390f35b6101b56106dc565b6040516101c29190611064565b60405180910390f35b6101e560048036038101906101e09190610f2a565b61076a565b6040516101f29190610df7565b60405180910390f35b610203610782565b6040516102109190611064565b60405180910390f35b610233600480360381019061022e9190610f2a565b610810565b604051610244959493929190610f66565b60405180910390f35b61026760048036038101906102629190611086565b6109c7565b6040516102749190610f0f565b60405180910390f35b610297600480360381019061029291906110c6565b610ccc565b6040516102a49190610fb9565b60405180910390f35b6102b5610d0b565b6040516102c291906111b1565b60405180910390f35b6102d3610d99565b6040516102e09190610df7565b60405180910390f35b61030360048036038101906102fe91906111d3565b610d9f565b6040516103109190610df7565b60405180910390f35b60035481565b6000600860008573ffffffffffffffffffffffffffffffffffffffff1673ffffffffffffffffffffffffffffffffffffffff1681526020019081526020016000205482111561036d57600080fd5b600960008573ffffffffffffffffffffffffffffffffffffffff1673ffffffffffffffffffffffffffffffffffffffff16815260200190815260200160002060003373ffffffffffffffffffffffffffffffffffffffff1673ffffffffffffffffffffffffffffffffffffffff168152602001908152602001600020548211156103f657600080fd5b81600860008673ffffffffffffffffffffffffffffffffffffffff1673ffffffffffffffffffffffffffffffffffffffff16815260200190815260200160002060008282546104459190611242565b9250508190555081600860008573ffffffffffffffffffffffffffffffffffffffff1673ffffffffffffffffffffffffffffffffffffffff168152602001908152602001600020600082825461049b9190611276565b9250508190555081600960008673ffffffffffffffffffffffffffffffffffffffff1673ffffffffffffffffffffffffffffffffffffffff16815260200190815260200160002060003373ffffffffffffffffffffffffffffffffffffffff1673ffffffffffffffffffffffffffffffffffffffff168152602001908152602001600020600082825461052e9190611242565b925050819055508273ffffffffffffffffffffffffffffffffffffffff168473ffffffffffffffffffffffffffffffffffffffff167fddf252ad1be2c89b69c2b068fc378daa952ba7f163c4a11628f55a4df523b3ef846040516105929190610df7565b60405180910390a3600190509392505050565b60076020528060005260406000206000915090508060000154908060010160009054906101000a900473ffffffffffffffffffffffffffffffffffffffff16908060020160009054906101000a900473ffffffffffffffffffffffffffffffffffffffff16908060030154908060040160009054906101000a900460ff16905085565b600460009054906101000a900473ffffffffffffffffffffffffffffffffffffffff1681565b6002805461065b906112d9565b80601f0160208091040260200160405190810160405280929190818152602001828054610687906112d9565b80156106d45780601f106106a9576101008083540402835291602001916106d4565b820191906000526020600020905b8154815290600101906020018083116106b757829003601f168201915b505050505081565b600080546106e9906112d9565b80601f0160208091040260200160405190810160405280929190818152602001828054610715906112d9565b80156107625780601f1061073757610100808354040283529160200191610762565b820191906000526020600020905b81548152906001019060200180831161074557829003601f168201915b505050505081565b60086020528060005260406000206000915090505481565b6001805461078f906112d9565b80601f01602080910402602001604051908101604052809291908181526020018280546107bb906112d9565b80156108085780601f106107dd57610100808354040283529160200191610808565b820191906000526020600020905b8154815290600101906020018083116107eb57829003601f168201915b505050505081565b6000806000806000600760008773ffffffffffffffffffffffffffffffffffffffff1673ffffffffffffffffffffffffffffffffffffffff16815260200190815260200160002060000154600760008873ffffffffffffffffffffffffffffffffffffffff1673ffffffffffffffffffffffffffffffffffffffff16815260200190815260200160002060010160009054906101000a900473ffffffffffffffffffffffffffffffffffffffff16600760008973ffffffffffffffffffffffffffffffffffffffff1673ffffffffffffffffffffffffffffffffffffffff16815260200190815260200160002060020160009054906101000a900473ffffffffffffffffffffffffffffffffffffffff16600760008a73ffffffffffffffffffffffffffffffffffffffff1673ffffffffffffffffffffffffffffffffffffffff16815260200190815260200160002060030154600760008b73ffffffffffffffffffffffffffffffffffffffff1673ffffffffffffffffffffffffffffffffffffffff16815260200190815260200160002060040160009054906101000a900460ff169450945094509450945091939590929450565b600081600860003373ffffffffffffffffffffffffffffffffffffffff1673ffffffffffffffffffffffffffffffffffffffff168152602001908152602001600020541015610a4b576040517f08c379a0000000000000000000000000000000000000000000000000000000008152600401610a4290611356565b60405180910390fd5b610a53610dc4565b81600860003373ffffffffffffffffffffffffffffffffffffffff1673ffffffffffffffffffffffffffffffffffffffff1681526020019081526020016000206000828254610aa29190611242565b9250508190555081600860008573ffffffffffffffffffffffffffffffffffffffff1673ffffffffffffffffffffffffffffffffffffffff1681526020019081526020016000206000828254610af89190611276565b925050819055506000600760008573ffffffffffffffffffffffffffffffffffffffff1673ffffffffffffffffffffffffffffffffffffffff1681526020019081526020016000209050838160020160006101000a81548173ffffffffffffffffffffffffffffffffffffffff021916908373ffffffffffffffffffffffffffffffffffffffff160217905550338160010160006101000a81548173ffffffffffffffffffffffffffffffffffffffff021916908373ffffffffffffffffffffffffffffffffffffffff16021790555082816003018190555060018160040160006101000a81548160ff02191690831515021790555060055481600001819055506006849080600181540180825580915050600190039060005260206000200160009091909190916101000a81548173ffffffffffffffffffffffffffffffffffffffff021916908373ffffffffffffffffffffffffffffffffffffffff1602179055508373ffffffffffffffffffffffffffffffffffffffff163373ffffffffffffffffffffffffffffffffffffffff167fddf252ad1be2c89b69c2b068fc378daa952ba7f163c4a11628f55a4df523b3ef85604051610cb99190610df7565b60405180910390a3600191505092915050565b60068181548110610cdc57600080fd5b906000526020600020016000915054906101000a900473ffffffffffffffffffffffffffffffffffffffff1681565b60606006805480602002602001604051908101604052809291908181526020018280548015610d8f57602002820191906000526020600020905b8160009054906101000a900473ffffffffffffffffffffffffffffffffffffffff1673ffffffffffffffffffffffffffffffffffffffff1681526020019060010190808311610d45575b5050505050905090565b60055481565b6009602052816000526040600020602052806000526040600020600091509150505481565b60056000815480929190610dd790611376565b9190505550565b6000819050919050565b610df181610dde565b82525050565b6000602082019050610e0c6000830184610de8565b92915050565b600080fd5b600073ffffffffffffffffffffffffffffffffffffffff82169050919050565b6000610e4282610e17565b9050919050565b610e5281610e37565b8114610e5d57600080fd5b50565b600081359050610e6f81610e49565b92915050565b610e7e81610dde565b8114610e8957600080fd5b50565b600081359050610e9b81610e75565b92915050565b600080600060608486031215610eba57610eb9610e12565b5b6000610ec886828701610e60565b9350506020610ed986828701610e60565b9250506040610eea86828701610e8c565b9150509250925092565b60008115159050919050565b610f0981610ef4565b82525050565b6000602082019050610f246000830184610f00565b92915050565b600060208284031215610f4057610f3f610e12565b5b6000610f4e84828501610e60565b91505092915050565b610f6081610e37565b82525050565b600060a082019050610f7b6000830188610de8565b610f886020830187610f57565b610f956040830186610f57565b610fa26060830185610de8565b610faf6080830184610f00565b9695505050505050565b6000602082019050610fce6000830184610f57565b92915050565b600081519050919050565b600082825260208201905092915050565b60005b8381101561100e578082015181840152602081019050610ff3565b60008484015250505050565b6000601f19601f8301169050919050565b600061103682610fd4565b6110408185610fdf565b9350611050818560208601610ff0565b6110598161101a565b840191505092915050565b6000602082019050818103600083015261107e818461102b565b905092915050565b6000806040838503121561109d5761109c610e12565b5b60006110ab85828601610e60565b92505060206110bc85828601610e8c565b9150509250929050565b6000602082840312156110dc576110db610e12565b5b60006110ea84828501610e8c565b91505092915050565b600081519050919050565b600082825260208201905092915050565b6000819050602082019050919050565b61112881610e37565b82525050565b600061113a838361111f565b60208301905092915050565b6000602082019050919050565b600061115e826110f3565b61116881856110fe565b93506111738361110f565b8060005b838110156111a457815161118b888261112e565b975061119683611146565b925050600181019050611177565b5085935050505092915050565b600060208201905081810360008301526111cb8184611153565b905092915050565b600080604083850312156111ea576111e9610e12565b5b60006111f885828601610e60565b925050602061120985828601610e60565b9150509250929050565b7f4e487b7100000000000000000000000000000000000000000000000000000000600052601160045260246000fd5b600061124d82610dde565b915061125883610dde565b92508282039050818111156112705761126f611213565b5b92915050565b600061128182610dde565b915061128c83610dde565b92508282019050808211156112a4576112a3611213565b5b92915050565b7f4e487b7100000000000000000000000000000000000000000000000000000000600052602260045260246000fd5b600060028204905060018216806112f157607f821691505b602082108103611304576113036112aa565b5b50919050565b7f496e73756666696369656e7420616d6f756e7400000000000000000000000000600082015250565b6000611340601383610fdf565b915061134b8261130a565b602082019050919050565b6000602082019050818103600083015261136f81611333565b9050919050565b600061138182610dde565b91507fffffffffffffffffffffffffffffffffffffffffffffffffffffffffffffffff82036113b3576113b2611213565b5b60018201905091905056fea26469706673582212208c786f5c7faa1352d39d5aa8b7564816c12769a37f858fc1134aab11dc8efa0d64736f6c63430008120033",
  "linkReferences": {},
  "deployedLinkReferences": {}
}